{
  "_format": "hh-sol-artifact-1",
  "contractName": "WavePortal",
  "sourceName": "contracts/WavePortal.sol",
  "abi": [
    {
      "inputs": [],
      "stateMutability": "payable",
      "type": "constructor"
    },
    {
      "anonymous": false,
      "inputs": [
        {
          "indexed": true,
          "internalType": "address",
          "name": "from",
          "type": "address"
        },
        {
          "indexed": false,
          "internalType": "uint256",
          "name": "timestamp",
          "type": "uint256"
        },
        {
          "indexed": false,
          "internalType": "string",
          "name": "message",
          "type": "string"
        }
      ],
      "name": "NewPoke",
      "type": "event"
    },
    {
      "anonymous": false,
      "inputs": [
        {
          "indexed": true,
          "internalType": "address",
          "name": "from",
          "type": "address"
        },
        {
          "indexed": false,
          "internalType": "uint256",
          "name": "timestamp",
          "type": "uint256"
        },
        {
          "indexed": false,
          "internalType": "string",
          "name": "message",
          "type": "string"
        }
      ],
      "name": "NewWave",
      "type": "event"
    },
    {
      "inputs": [
        {
          "internalType": "address",
          "name": "friend",
          "type": "address"
        }
      ],
      "name": "addFriends",
      "outputs": [
        {
          "internalType": "bool",
          "name": "",
          "type": "bool"
        }
      ],
      "stateMutability": "nonpayable",
      "type": "function"
    },
    {
      "inputs": [
        {
          "internalType": "address",
          "name": "",
          "type": "address"
        }
      ],
      "name": "friends",
      "outputs": [
        {
          "internalType": "bool",
          "name": "",
          "type": "bool"
        }
      ],
      "stateMutability": "view",
      "type": "function"
    },
    {
      "inputs": [],
      "name": "getAllPokes",
      "outputs": [
        {
          "components": [
            {
              "internalType": "address",
              "name": "poker",
              "type": "address"
            },
            {
              "internalType": "string",
              "name": "message",
              "type": "string"
            },
            {
              "internalType": "uint256",
              "name": "timestamp",
              "type": "uint256"
            }
          ],
          "internalType": "struct WavePortal.Poke[]",
          "name": "",
          "type": "tuple[]"
        }
      ],
      "stateMutability": "view",
      "type": "function"
    },
    {
      "inputs": [],
      "name": "getAllWaves",
      "outputs": [
        {
          "components": [
            {
              "internalType": "address",
              "name": "waver",
              "type": "address"
            },
            {
              "internalType": "string",
              "name": "message",
              "type": "string"
            },
            {
              "internalType": "uint256",
              "name": "timestamp",
              "type": "uint256"
            }
          ],
          "internalType": "struct WavePortal.Wave[]",
          "name": "",
          "type": "tuple[]"
        }
      ],
      "stateMutability": "view",
      "type": "function"
    },
    {
      "inputs": [],
      "name": "getTotalPokes",
      "outputs": [
        {
          "internalType": "uint256",
          "name": "",
          "type": "uint256"
        }
      ],
      "stateMutability": "view",
      "type": "function"
    },
    {
      "inputs": [],
      "name": "getTotalWaves",
      "outputs": [
        {
          "internalType": "uint256",
          "name": "",
          "type": "uint256"
        }
      ],
      "stateMutability": "view",
      "type": "function"
    },
    {
      "inputs": [
        {
          "internalType": "address",
          "name": "",
          "type": "address"
        }
      ],
      "name": "lastPokedAt",
      "outputs": [
        {
          "internalType": "uint256",
          "name": "",
          "type": "uint256"
        }
      ],
      "stateMutability": "view",
      "type": "function"
    },
    {
      "inputs": [
        {
          "internalType": "string",
          "name": "message",
          "type": "string"
        }
      ],
      "name": "poke",
      "outputs": [],
      "stateMutability": "nonpayable",
      "type": "function"
    },
    {
      "inputs": [
        {
          "internalType": "string",
          "name": "message",
          "type": "string"
        }
      ],
      "name": "wave",
      "outputs": [],
      "stateMutability": "nonpayable",
      "type": "function"
    }
  ],
  "bytecode": "0x60806040526200004f6040518060400160405280601181526020017f536d61727420436f6e74726163742121210000000000000000000000000000008152506200007760201b62000c5c1760201c565b606444426200005f9190620001c4565b6200006b919062000261565b60008190555062000308565b62000117816040516024016200008e919062000184565b6040516020818303038152906040527f41304fac000000000000000000000000000000000000000000000000000000007bffffffffffffffffffffffffffffffffffffffffffffffffffffffff19166020820180517bffffffffffffffffffffffffffffffffffffffffffffffffffffffff83818316178352505050506200011a60201b60201c565b50565b60008151905060006a636f6e736f6c652e6c6f679050602083016000808483855afa5050505050565b60006200015082620001a8565b6200015c8185620001b3565b93506200016e8185602086016200022b565b6200017981620002f7565b840191505092915050565b60006020820190508181036000830152620001a0818462000143565b905092915050565b600081519050919050565b600082825260208201905092915050565b6000620001d18262000221565b9150620001de8362000221565b9250827fffffffffffffffffffffffffffffffffffffffffffffffffffffffffffffffff0382111562000216576200021562000299565b5b828201905092915050565b6000819050919050565b60005b838110156200024b5780820151818401526020810190506200022e565b838111156200025b576000848401525b50505050565b60006200026e8262000221565b91506200027b8362000221565b9250826200028e576200028d620002c8565b5b828206905092915050565b7f4e487b7100000000000000000000000000000000000000000000000000000000600052601160045260246000fd5b7f4e487b7100000000000000000000000000000000000000000000000000000000600052601260045260246000fd5b6000601f19601f8301169050919050565b61196680620003186000396000f3fe608060405234801561001057600080fd5b50600436106100935760003560e01c80639a2cdc08116100665780639a2cdc0814610132578063bd43a90814610150578063c463d8ad1461016e578063c9779c351461019e578063eda21f14146101ba57610093565b806313467919146100985780631ddabf7a146100b65780631dfc6e73146100e6578063449d46c014610116575b600080fd5b6100a06101d8565b6040516100ad9190611474565b60405180910390f35b6100d060048036038101906100cb9190610f76565b610223565b6040516100dd9190611357565b60405180910390f35b61010060048036038101906100fb9190610f76565b610243565b60405161010d9190611474565b60405180910390f35b610130600480360381019061012b9190610f9f565b61025b565b005b61013a6103d3565b6040516101479190611474565b60405180910390f35b61015861041e565b6040516101659190611335565b60405180910390f35b61018860048036038101906101839190610f76565b61056f565b6040516101959190611357565b60405180910390f35b6101b860048036038101906101b39190610f9f565b610684565b005b6101c2610b0b565b6040516101cf9190611313565b60405180910390f35b600061021b6040518060400160405280601781526020017f5765206861766520256420746f74616c20706f6b657321000000000000000000815250600554610cf5565b600554905090565b60086020528060005260406000206000915054906101000a900460ff1681565b60066020528060005260406000206000915090505481565b60016003600082825461026e91906115bf565b925050819055506102b46040518060400160405280600c81526020017f257320686173207761766564000000000000000000000000000000000000000081525033610d91565b600160405180606001604052803373ffffffffffffffffffffffffffffffffffffffff16815260200183815260200142815250908060018154018082558091505060019003906000526020600020906003020160009091909190915060008201518160000160006101000a81548173ffffffffffffffffffffffffffffffffffffffff021916908373ffffffffffffffffffffffffffffffffffffffff1602179055506020820151816001019080519060200190610373929190610e56565b506040820151816002015550503373ffffffffffffffffffffffffffffffffffffffff167f5f7e16dc676677766a70e9c5628aa6c54ddb8b6e5188e2ae1e1f17f1ffbea71642836040516103c892919061148f565b60405180910390a250565b60006104166040518060400160405280601781526020017f5765206861766520256420746f74616c20776176657321000000000000000000815250600354610cf5565b600354905090565b60606001805480602002602001604051908101604052809291908181526020016000905b8282101561056657838290600052602060002090600302016040518060600160405290816000820160009054906101000a900473ffffffffffffffffffffffffffffffffffffffff1673ffffffffffffffffffffffffffffffffffffffff1673ffffffffffffffffffffffffffffffffffffffff1681526020016001820180546104cb9061169f565b80601f01602080910402602001604051908101604052809291908181526020018280546104f79061169f565b80156105445780601f1061051957610100808354040283529160200191610544565b820191906000526020600020905b81548152906001019060200180831161052757829003601f168201915b5050505050815260200160028201548152505081526020019060010190610442565b50505050905090565b6000600860008373ffffffffffffffffffffffffffffffffffffffff1673ffffffffffffffffffffffffffffffffffffffff16815260200190815260200160002060009054906101000a900460ff16610626576007829080600181540180825580915050600190039060005260206000200160009091909190916101000a81548173ffffffffffffffffffffffffffffffffffffffff021916908373ffffffffffffffffffffffffffffffffffffffff1602179055505b6001600860008473ffffffffffffffffffffffffffffffffffffffff1673ffffffffffffffffffffffffffffffffffffffff16815260200190815260200160002060006101000a81548160ff02191690831515021790559050919050565b600860003373ffffffffffffffffffffffffffffffffffffffff1673ffffffffffffffffffffffffffffffffffffffff16815260200190815260200160002060009054906101000a900460ff16610710576040517f08c379a000000000000000000000000000000000000000000000000000000000815260040161070790611454565b60405180910390fd5b42601e600660003373ffffffffffffffffffffffffffffffffffffffff1673ffffffffffffffffffffffffffffffffffffffff1681526020019081526020016000205461075d91906115bf565b1061079d576040517f08c379a000000000000000000000000000000000000000000000000000000000815260040161079490611434565b60405180910390fd5b42600660003373ffffffffffffffffffffffffffffffffffffffff1673ffffffffffffffffffffffffffffffffffffffff168152602001908152602001600020819055506001600560008282546107f491906115bf565b9250508190555061083a6040518060400160405280601081526020017f25732068617320706f6b656420796f750000000000000000000000000000000081525033610d91565b600260405180606001604052803373ffffffffffffffffffffffffffffffffffffffff16815260200183815260200142815250908060018154018082558091505060019003906000526020600020906003020160009091909190915060008201518160000160006101000a81548173ffffffffffffffffffffffffffffffffffffffff021916908373ffffffffffffffffffffffffffffffffffffffff16021790555060208201518160010190805190602001906108f9929190610e56565b506040820151816002015550503373ffffffffffffffffffffffffffffffffffffffff167f4f82870d3c424fade346d15919991f9b3c200d77d572675c7991ea5b7922c98d428360405161094e92919061148f565b60405180910390a26064600054424461096791906115bf565b61097191906115bf565b61097b9190611702565b6000819055506109c26040518060400160405280601681526020017f52616e646f6d20232067656e6572617465643a20256400000000000000000000815250600054610cf5565b601960005411610b0857610a0b6040518060400160405280600781526020017f257320776f6e210000000000000000000000000000000000000000000000000081525033610d91565b6000655af3107a4000905047811115610a59576040517f08c379a0000000000000000000000000000000000000000000000000000000008152600401610a50906113f4565b60405180910390fd5b60003373ffffffffffffffffffffffffffffffffffffffff1682604051610a7f906112fe565b60006040518083038185875af1925050503d8060008114610abc576040519150601f19603f3d011682016040523d82523d6000602084013e610ac1565b606091505b5050905080610b05576040517f08c379a0000000000000000000000000000000000000000000000000000000008152600401610afc90611414565b60405180910390fd5b50505b50565b60606002805480602002602001604051908101604052809291908181526020016000905b82821015610c5357838290600052602060002090600302016040518060600160405290816000820160009054906101000a900473ffffffffffffffffffffffffffffffffffffffff1673ffffffffffffffffffffffffffffffffffffffff1673ffffffffffffffffffffffffffffffffffffffff168152602001600182018054610bb89061169f565b80601f0160208091040260200160405190810160405280929190818152602001828054610be49061169f565b8015610c315780601f10610c0657610100808354040283529160200191610c31565b820191906000526020600020905b815481529060010190602001808311610c1457829003601f168201915b5050505050815260200160028201548152505081526020019060010190610b2f565b50505050905090565b610cf281604051602401610c709190611372565b6040516020818303038152906040527f41304fac000000000000000000000000000000000000000000000000000000007bffffffffffffffffffffffffffffffffffffffffffffffffffffffff19166020820180517bffffffffffffffffffffffffffffffffffffffffffffffffffffffff8381831617835250505050610e2d565b50565b610d8d8282604051602401610d0b9291906113c4565b6040516020818303038152906040527f9710a9d0000000000000000000000000000000000000000000000000000000007bffffffffffffffffffffffffffffffffffffffffffffffffffffffff19166020820180517bffffffffffffffffffffffffffffffffffffffffffffffffffffffff8381831617835250505050610e2d565b5050565b610e298282604051602401610da7929190611394565b6040516020818303038152906040527f319af333000000000000000000000000000000000000000000000000000000007bffffffffffffffffffffffffffffffffffffffffffffffffffffffff19166020820180517bffffffffffffffffffffffffffffffffffffffffffffffffffffffff8381831617835250505050610e2d565b5050565b60008151905060006a636f6e736f6c652e6c6f679050602083016000808483855afa5050505050565b828054610e629061169f565b90600052602060002090601f016020900481019282610e845760008555610ecb565b82601f10610e9d57805160ff1916838001178555610ecb565b82800160010185558215610ecb579182015b82811115610eca578251825591602001919060010190610eaf565b5b509050610ed89190610edc565b5090565b5b80821115610ef5576000816000905550600101610edd565b5090565b6000610f0c610f07846114e4565b6114bf565b905082815260208101848484011115610f2457600080fd5b610f2f84828561165d565b509392505050565b600081359050610f4681611919565b92915050565b600082601f830112610f5d57600080fd5b8135610f6d848260208601610ef9565b91505092915050565b600060208284031215610f8857600080fd5b6000610f9684828501610f37565b91505092915050565b600060208284031215610fb157600080fd5b600082013567ffffffffffffffff811115610fcb57600080fd5b610fd784828501610f4c565b91505092915050565b6000610fec8383611240565b905092915050565b60006110008383611290565b905092915050565b61101181611615565b82525050565b61102081611615565b82525050565b600061103182611535565b61103b8185611570565b93508360208202850161104d85611515565b8060005b85811015611089578484038952815161106a8582610fe0565b945061107583611556565b925060208a01995050600181019050611051565b50829750879550505050505092915050565b60006110a682611540565b6110b08185611581565b9350836020820285016110c285611525565b8060005b858110156110fe57848403895281516110df8582610ff4565b94506110ea83611563565b925060208a019950506001810190506110c6565b50829750879550505050505092915050565b61111981611627565b82525050565b600061112a8261154b565b611134818561159d565b935061114481856020860161166c565b61114d816117ef565b840191505092915050565b60006111638261154b565b61116d81856115ae565b935061117d81856020860161166c565b611186816117ef565b840191505092915050565b600061119e6034836115ae565b91506111a982611800565b604082019050919050565b60006111c16027836115ae565b91506111cc8261184f565b604082019050919050565b60006111e4600083611592565b91506111ef8261189e565b600082019050919050565b60006112076023836115ae565b9150611212826118a1565b604082019050919050565b600061122a6018836115ae565b9150611235826118f0565b602082019050919050565b60006060830160008301516112586000860182611008565b5060208301518482036020860152611270828261111f565b915050604083015161128560408601826112e0565b508091505092915050565b60006060830160008301516112a86000860182611008565b50602083015184820360208601526112c0828261111f565b91505060408301516112d560408601826112e0565b508091505092915050565b6112e981611653565b82525050565b6112f881611653565b82525050565b6000611309826111d7565b9150819050919050565b6000602082019050818103600083015261132d8184611026565b905092915050565b6000602082019050818103600083015261134f818461109b565b905092915050565b600060208201905061136c6000830184611110565b92915050565b6000602082019050818103600083015261138c8184611158565b905092915050565b600060408201905081810360008301526113ae8185611158565b90506113bd6020830184611017565b9392505050565b600060408201905081810360008301526113de8185611158565b90506113ed60208301846112ef565b9392505050565b6000602082019050818103600083015261140d81611191565b9050919050565b6000602082019050818103600083015261142d816111b4565b9050919050565b6000602082019050818103600083015261144d816111fa565b9050919050565b6000602082019050818103600083015261146d8161121d565b9050919050565b600060208201905061148960008301846112ef565b92915050565b60006040820190506114a460008301856112ef565b81810360208301526114b68184611158565b90509392505050565b60006114c96114da565b90506114d582826116d1565b919050565b6000604051905090565b600067ffffffffffffffff8211156114ff576114fe6117c0565b5b611508826117ef565b9050602081019050919050565b6000819050602082019050919050565b6000819050602082019050919050565b600081519050919050565b600081519050919050565b600081519050919050565b6000602082019050919050565b6000602082019050919050565b600082825260208201905092915050565b600082825260208201905092915050565b600081905092915050565b600082825260208201905092915050565b600082825260208201905092915050565b60006115ca82611653565b91506115d583611653565b9250827fffffffffffffffffffffffffffffffffffffffffffffffffffffffffffffffff0382111561160a57611609611733565b5b828201905092915050565b600061162082611633565b9050919050565b60008115159050919050565b600073ffffffffffffffffffffffffffffffffffffffff82169050919050565b6000819050919050565b82818337600083830152505050565b60005b8381101561168a57808201518184015260208101905061166f565b83811115611699576000848401525b50505050565b600060028204905060018216806116b757607f821691505b602082108114156116cb576116ca611791565b5b50919050565b6116da826117ef565b810181811067ffffffffffffffff821117156116f9576116f86117c0565b5b80604052505050565b600061170d82611653565b915061171883611653565b92508261172857611727611762565b5b828206905092915050565b7f4e487b7100000000000000000000000000000000000000000000000000000000600052601160045260246000fd5b7f4e487b7100000000000000000000000000000000000000000000000000000000600052601260045260246000fd5b7f4e487b7100000000000000000000000000000000000000000000000000000000600052602260045260246000fd5b7f4e487b7100000000000000000000000000000000000000000000000000000000600052604160045260246000fd5b6000601f19601f8301169050919050565b7f547279696e6720746f207769746864726177206d6f7265206d6f6e657920746860008201527f616e2074686520636f6e7472616374206861732e000000000000000000000000602082015250565b7f4661696c656420746f207769746864726177206d6f6e65792066726f6d20636f60008201527f6e74726163742e00000000000000000000000000000000000000000000000000602082015250565b50565b7f57616974203330207365636f6e6473206265666f726520706f6b696e6720616760008201527f61696e0000000000000000000000000000000000000000000000000000000000602082015250565b7f4e6f74206f6e2074686520667269656e647327206c6973740000000000000000600082015250565b61192281611615565b811461192d57600080fd5b5056fea264697066735822122031d5bab1af66ba7c6dde451e64e05ce71cd96bbd52abfffb73856228ab9f5a1464736f6c63430008040033",
  "linkReferences": {},
  "deployedLinkReferences": {}
}